{
  "contractName": "RegistrosContract",
  "abi": [
    {
      "anonymous": false,
      "inputs": [
        {
          "indexed": false,
          "internalType": "uint256",
          "name": "id",
          "type": "uint256"
        },
        {
          "indexed": false,
          "internalType": "string",
          "name": "name",
          "type": "string"
        },
        {
          "indexed": false,
          "internalType": "string",
          "name": "textHash",
          "type": "string"
        },
        {
          "indexed": false,
          "internalType": "string",
          "name": "metaHash",
          "type": "string"
        },
        {
          "indexed": false,
          "internalType": "uint256",
          "name": "createdAt",
          "type": "uint256"
        }
      ],
      "name": "RegistroCreated",
      "type": "event"
    },
    {
      "anonymous": false,
      "inputs": [
        {
          "indexed": false,
          "internalType": "uint256",
          "name": "id",
          "type": "uint256"
        }
      ],
      "name": "RegistroDeleted",
      "type": "event"
    },
    {
      "inputs": [
        {
          "internalType": "uint256",
          "name": "",
          "type": "uint256"
        }
      ],
      "name": "registros",
      "outputs": [
        {
          "internalType": "uint256",
          "name": "id",
          "type": "uint256"
        },
        {
          "internalType": "string",
          "name": "name",
          "type": "string"
        },
        {
          "internalType": "string",
          "name": "textHash",
          "type": "string"
        },
        {
          "internalType": "string",
          "name": "metaHash",
          "type": "string"
        },
        {
          "internalType": "uint256",
          "name": "createdAt",
          "type": "uint256"
        }
      ],
      "stateMutability": "view",
      "type": "function"
    },
    {
      "inputs": [],
      "name": "registrosCounter",
      "outputs": [
        {
          "internalType": "uint256",
          "name": "",
          "type": "uint256"
        }
      ],
      "stateMutability": "view",
      "type": "function"
    },
    {
      "inputs": [
        {
          "internalType": "string",
          "name": "_name",
          "type": "string"
        },
        {
          "internalType": "string",
          "name": "_textHash",
          "type": "string"
        },
        {
          "internalType": "string",
          "name": "_metaHash",
          "type": "string"
        }
      ],
      "name": "createRegistro",
      "outputs": [],
      "stateMutability": "nonpayable",
      "type": "function"
    },
    {
      "inputs": [
        {
          "internalType": "uint256",
          "name": "_id",
          "type": "uint256"
        }
      ],
      "name": "getRegistro",
      "outputs": [
        {
          "components": [
            {
              "internalType": "uint256",
              "name": "id",
              "type": "uint256"
            },
            {
              "internalType": "string",
              "name": "name",
              "type": "string"
            },
            {
              "internalType": "string",
              "name": "textHash",
              "type": "string"
            },
            {
              "internalType": "string",
              "name": "metaHash",
              "type": "string"
            },
            {
              "internalType": "uint256",
              "name": "createdAt",
              "type": "uint256"
            }
          ],
          "internalType": "struct RegistrosContract.Registro",
          "name": "",
          "type": "tuple"
        }
      ],
      "stateMutability": "view",
      "type": "function"
    },
    {
      "inputs": [
        {
          "internalType": "uint256",
          "name": "_id",
          "type": "uint256"
        }
      ],
      "name": "deleteRegistro",
      "outputs": [],
      "stateMutability": "nonpayable",
      "type": "function"
    }
  ],
  "bytecode": "0x60806040526000805534801561001457600080fd5b50610e25806100246000396000f3fe608060405234801561001057600080fd5b50600436106100575760003560e01c806336636c541461005c578063b516bf4b1461008c578063c54cb30d146100aa578063d1591089146100c6578063ded39a5d146100e2575b600080fd5b61007660048036038101906100719190610959565b610116565b6040516100839190610add565b60405180910390f35b61009461035e565b6040516100a19190610aff565b60405180910390f35b6100c460048036038101906100bf91906108b2565b610364565b005b6100e060048036038101906100db9190610959565b61046c565b005b6100fc60048036038101906100f79190610959565b61054d565b60405161010d959493929190610b1a565b60405180910390f35b61011e61071b565b60008211801561013057506000548211155b61016f576040517f08c379a000000000000000000000000000000000000000000000000000000000815260040161016690610abd565b60405180910390fd5b600160008381526020019081526020016000206040518060a0016040529081600082015481526020016001820180546101a790610c51565b80601f01602080910402602001604051908101604052809291908181526020018280546101d390610c51565b80156102205780601f106101f557610100808354040283529160200191610220565b820191906000526020600020905b81548152906001019060200180831161020357829003601f168201915b5050505050815260200160028201805461023990610c51565b80601f016020809104026020016040519081016040528092919081815260200182805461026590610c51565b80156102b25780601f10610287576101008083540402835291602001916102b2565b820191906000526020600020905b81548152906001019060200180831161029557829003601f168201915b505050505081526020016003820180546102cb90610c51565b80601f01602080910402602001604051908101604052809291908181526020018280546102f790610c51565b80156103445780601f1061031957610100808354040283529160200191610344565b820191906000526020600020905b81548152906001019060200180831161032757829003601f168201915b505050505081526020016004820154815250509050919050565b60005481565b60008081548092919061037690610cb4565b91905055506040518060a0016040528060005481526020018481526020018381526020018281526020014281525060016000805481526020019081526020016000206000820151816000015560208201518160010190805190602001906103de92919061074a565b5060408201518160020190805190602001906103fb92919061074a565b50606082015181600301908051906020019061041892919061074a565b50608082015181600401559050507ff43a6dd857837446d09a221acceafc8b220706f224647841ab6f09aae988895f6000548484844260405161045f959493929190610b1a565b60405180910390a1505050565b60008111801561047e57506000548111155b6104bd576040517f08c379a00000000000000000000000000000000000000000000000000000000081526004016104b490610abd565b60405180910390fd5b600160008281526020019081526020016000206000808201600090556001820160006104e991906107d0565b6002820160006104f991906107d0565b60038201600061050991906107d0565b600482016000905550507f2d3b1eb779f4e782316c31fb502a36a9e24f4dcc917bffaad5c42e6f118a2c1d816040516105429190610aff565b60405180910390a150565b600160205280600052604060002060009150905080600001549080600101805461057690610c51565b80601f01602080910402602001604051908101604052809291908181526020018280546105a290610c51565b80156105ef5780601f106105c4576101008083540402835291602001916105ef565b820191906000526020600020905b8154815290600101906020018083116105d257829003601f168201915b50505050509080600201805461060490610c51565b80601f016020809104026020016040519081016040528092919081815260200182805461063090610c51565b801561067d5780601f106106525761010080835404028352916020019161067d565b820191906000526020600020905b81548152906001019060200180831161066057829003601f168201915b50505050509080600301805461069290610c51565b80601f01602080910402602001604051908101604052809291908181526020018280546106be90610c51565b801561070b5780601f106106e05761010080835404028352916020019161070b565b820191906000526020600020905b8154815290600101906020018083116106ee57829003601f168201915b5050505050908060040154905085565b6040518060a0016040528060008152602001606081526020016060815260200160608152602001600081525090565b82805461075690610c51565b90600052602060002090601f01602090048101928261077857600085556107bf565b82601f1061079157805160ff19168380011785556107bf565b828001600101855582156107bf579182015b828111156107be5782518255916020019190600101906107a3565b5b5090506107cc9190610810565b5090565b5080546107dc90610c51565b6000825580601f106107ee575061080d565b601f01602090049060005260206000209081019061080c9190610810565b5b50565b5b80821115610829576000816000905550600101610811565b5090565b600061084061083b84610ba7565b610b82565b90508281526020810184848401111561085c5761085b610d8f565b5b610867848285610c0f565b509392505050565b600082601f83011261088457610883610d8a565b5b813561089484826020860161082d565b91505092915050565b6000813590506108ac81610dd8565b92915050565b6000806000606084860312156108cb576108ca610d99565b5b600084013567ffffffffffffffff8111156108e9576108e8610d94565b5b6108f58682870161086f565b935050602084013567ffffffffffffffff81111561091657610915610d94565b5b6109228682870161086f565b925050604084013567ffffffffffffffff81111561094357610942610d94565b5b61094f8682870161086f565b9150509250925092565b60006020828403121561096f5761096e610d99565b5b600061097d8482850161089d565b91505092915050565b600061099182610bd8565b61099b8185610be3565b93506109ab818560208601610c1e565b6109b481610d9e565b840191505092915050565b60006109ca82610bd8565b6109d48185610bf4565b93506109e4818560208601610c1e565b6109ed81610d9e565b840191505092915050565b6000610a05601683610bf4565b9150610a1082610daf565b602082019050919050565b600060a083016000830151610a336000860182610a9f565b5060208301518482036020860152610a4b8282610986565b91505060408301518482036040860152610a658282610986565b91505060608301518482036060860152610a7f8282610986565b9150506080830151610a946080860182610a9f565b508091505092915050565b610aa881610c05565b82525050565b610ab781610c05565b82525050565b60006020820190508181036000830152610ad6816109f8565b9050919050565b60006020820190508181036000830152610af78184610a1b565b905092915050565b6000602082019050610b146000830184610aae565b92915050565b600060a082019050610b2f6000830188610aae565b8181036020830152610b4181876109bf565b90508181036040830152610b5581866109bf565b90508181036060830152610b6981856109bf565b9050610b786080830184610aae565b9695505050505050565b6000610b8c610b9d565b9050610b988282610c83565b919050565b6000604051905090565b600067ffffffffffffffff821115610bc257610bc1610d5b565b5b610bcb82610d9e565b9050602081019050919050565b600081519050919050565b600082825260208201905092915050565b600082825260208201905092915050565b6000819050919050565b82818337600083830152505050565b60005b83811015610c3c578082015181840152602081019050610c21565b83811115610c4b576000848401525b50505050565b60006002820490506001821680610c6957607f821691505b60208210811415610c7d57610c7c610d2c565b5b50919050565b610c8c82610d9e565b810181811067ffffffffffffffff82111715610cab57610caa610d5b565b5b80604052505050565b6000610cbf82610c05565b91507fffffffffffffffffffffffffffffffffffffffffffffffffffffffffffffffff821415610cf257610cf1610cfd565b5b600182019050919050565b7f4e487b7100000000000000000000000000000000000000000000000000000000600052601160045260246000fd5b7f4e487b7100000000000000000000000000000000000000000000000000000000600052602260045260246000fd5b7f4e487b7100000000000000000000000000000000000000000000000000000000600052604160045260246000fd5b600080fd5b600080fd5b600080fd5b600080fd5b6000601f19601f8301169050919050565b7f526567697374726f206e6f20656e636f6e747261646f00000000000000000000600082015250565b610de181610c05565b8114610dec57600080fd5b5056fea264697066735822122070630eb40f489e076b64ba294a2a25eb0b296c908e20db15ffb3807ef6c992fd64736f6c63430008060033",
  "immutableReferences": {},
  "source": "// SPDX-License-Identifier: MIT\r\npragma solidity ^0.8.6;\r\n\r\ncontract RegistrosContract {\r\n    uint256 public registrosCounter = 0;\r\n\r\n    struct Registro {\r\n        uint256 id;\r\n        string name;\r\n        string textHash;\r\n        string metaHash;\r\n        uint256 createdAt;\r\n    }\r\n\r\n    event RegistroCreated(\r\n        uint256 id,\r\n        string name,\r\n        string textHash,\r\n        string metaHash,\r\n        uint256 createdAt\r\n    );\r\n\r\n    event RegistroDeleted(uint256 id);\r\n\r\n    mapping(uint256 => Registro) public registros;\r\n\r\n    // Funcin para crear un nuevo registro\r\n    function createRegistro(string memory _name, string memory _textHash, string memory _metaHash) public {\r\n        registrosCounter++;\r\n        registros[registrosCounter] = Registro(\r\n            registrosCounter,\r\n            _name,\r\n            _textHash,\r\n            _metaHash,\r\n            block.timestamp\r\n        );\r\n        emit RegistroCreated(\r\n            registrosCounter,\r\n            _name,\r\n            _textHash,\r\n            _metaHash,\r\n            block.timestamp\r\n        );\r\n    }\r\n\r\n    // Funcin para obtener un registro por ID\r\n    function getRegistro(uint256 _id) public view returns (Registro memory) {\r\n        require(_id > 0 && _id <= registrosCounter, \"Registro no encontrado\");\r\n        return registros[_id];\r\n    }\r\n\r\n    // Funcin para eliminar un registro por ID\r\n    function deleteRegistro(uint256 _id) public {\r\n        require(_id > 0 && _id <= registrosCounter, \"Registro no encontrado\");\r\n        delete registros[_id];\r\n        emit RegistroDeleted(_id);\r\n    }\r\n}\r\n",
  "sourcePath": "C:\\Users\\Lenovo\\Documents\\Forte\\Blockchain\\med-blockchain\\medblockchain\\contracts\\RegistrosContract.sol",
  "compiler": {
    "name": "solc",
    "version": "0.8.6+commit.11564f7e.Emscripten.clang"
  },
  "schemaVersion": "3.4.16",
  "updatedAt": "2024-11-07T16:39:50.322Z",
  "devdoc": {
    "kind": "dev",
    "methods": {},
    "version": 1
  },
  "userdoc": {
    "kind": "user",
    "methods": {},
    "version": 1
  }
}